14:58:53.662575 IP6 localhost.62912 > localhost.http: Flags [P.], seq 1:74, ack 1, win 6371, options [nop,nop,TS val 882519334 ecr 882519334], length 73: HTTP: GET / HTTP/1.1
	0x0000:  6009 f406 0069 0640 0000 0000 0000 0000  `....i.@........
	0x0010:  0000 0000 0000 0001 0000 0000 0000 0000  ................
	0x0020:  0000 0000 0000 0001 f5c0 0050 7450 c5c2  ...........PtP..
	0x0030:  3144 f9de 8018 18e3 0071 0000 0101 080a  1D.......q......
	0x0040:  349a 2d26 349a 2d26 4745 5420 2f20 4854  4.-&4.-&GET./.HT
	0x0050:  5450 2f31 2e31 0d0a 486f 7374 3a20 6c6f  TP/1.1..Host:.lo
	0x0060:  6361 6c68 6f73 740d 0a55 7365 722d 4167  calhost..User-Ag
	0x0070:  656e 743a 2063 7572 6c2f 372e 3634 2e30  ent:.curl/7.64.0
	0x0080:  0d0a 4163 6365 7074 3a20 2a2f 2a0d 0a0d  ..Accept:.*/*...
	0x0090:  0a                                       .
14:58:53.662594 IP6 localhost.http > localhost.62912: Flags [.], ack 74, win 6370, options [nop,nop,TS val 882519334 ecr 882519334], length 0
	0x0000:  6004 1fa0 0020 0640 0000 0000 0000 0000  `......@........
	0x0010:  0000 0000 0000 0001 0000 0000 0000 0000  ................
	0x0020:  0000 0000 0000 0001 0050 f5c0 3144 f9de  .........P..1D..
	0x0030:  7450 c60b 8010 18e2 0028 0000 0101 080a  tP.......(......
	0x0040:  349a 2d26 349a 2d26                      4.-&4.-&
14:58:53.663578 IP6 localhost.http > localhost.62912: Flags [P.], seq 1:109, ack 74, win 6370, options [nop,nop,TS val 882519335 ecr 882519334], length 108: HTTP: HTTP/1.1 200 OK
	0x0000:  6004 1fa0 008c 0640 0000 0000 0000 0000  `......@........
	0x0010:  0000 0000 0000 0001 0000 0000 0000 0000  ................
	0x0020:  0000 0000 0000 0001 0050 f5c0 3144 f9de  .........P..1D..
	0x0030:  7450 c60b 8018 18e2 0094 0000 0101 080a  tP..............
	0x0040:  349a 2d27 349a 2d26 4854 5450 2f31 2e31  4.-'4.-&HTTP/1.1
	0x0050:  2032 3030 204f 4b0d 0a44 6174 653a 2053  .200.OK..Date:.S
	0x0060:  6174 2c20 3133 204a 756e 2032 3032 3020  at,.13.Jun.2020.
	0x0070:  3138 3a35 383a 3533 2047 4d54 0d0a 436f  18:58:53.GMT..Co
	0x0080:  6e6e 6563 7469 6f6e 3a20 6b65 6570 2d61  nnection:.keep-a
	0x0090:  6c69 7665 0d0a 436f 6e74 656e 742d 4c65  live..Content-Le
	0x00a0:  6e67 7468 3a20 390d 0a0d 0a47 6f74 2048  ngth:.9....Got.H
	0x00b0:  5454 500a                                TTP.
